:1070000055C000006EC000006CC000006AC00000E7
:1070100068C0000066C0000064C0000062C00000DC
:1070200060C000005EC00000BEC400005AC0000086
:1070300058C0000056C0000054C0000052C00000FC
:1070400050C00000DBC000004CC000004AC000007F
:1070500048C0000046C0000044C0000042C000001C
:1070600040C000003EC000003CC000003AC000002C
:1070700038C0000036C0000034C0000032C000003C
:1070800030C000002EC000002CC000002AC000004C
:1070900028C0000026C0000024C0000022C000005C
:1070A00020C000001EC000001CC0000011241FBE34
:1070B000CFEFDAE0DEBFCDBF11E0A0E0B1E0E2E962
:1070C000FEE702C005900D92A63AB107D9F721E07C
:1070D000A6EAB1E001C01D92AC3BB207E1F759D37B
:1070E000D6C68ECF84E08093E9008091E80085FFCA
:1070F00003C08091F10008958091E8008B77809320
:10710000E8008091E80082FDF0CF8EB38111F9CFC5
:1071100080E0089593E09093E9009091E80095FF56
:107120000AC08093F1005D9884E690E09093AB01F3
:107130008093AA0108959091E8009E779093E800CB
:107140009091E80090FDEDCF9EB39111F9CF089595
:10715000F89410926F0010928100109285001092A6
:10716000840081E085BF15BE4798289A0C940000E2
:1071700008952091B0013091B1012F5F3F4F3093BE
:10718000B1012093B001832F37FF02C08EEF831B24
:10719000880F821710F447980895479A089584B786
:1071A000877F84BF0FB6F894A895809160008861AE
:1071B00080936000109260000FBE90E880E00FB6F0
:1071C000F89490936100809361000FBE81E085BFC9
:1071D00082E085BF3F9A209A559AE1E6F0E09083DD
:1071E00010824798289A109289009AEF909388000D
:1071F00080936F0083E080938100BDC31F920F9244
:107200000FB60F9211242F938F939F93EF93FF93B9
:1072100010928500109284008091AA019091AB0198
:10722000009729F001979093AB018093AA01809178
:10723000A8019091A901009741F001979093A901AD
:107240008093A801892B09F4289AE0E0F0E0859169
:107250009491019649F08091A6019091A701019621
:107260009093A7018093A601FF91EF919F918F9139
:107270002F910F900FBE0F901F90189542E061EC78
:1072800082E00ED342E161E883E00AD342E160E8A4
:1072900084E006C38091B401982F9F779132B9F4AE
:1072A0009091B5019032A1F0913289F4813A79F44C
:1072B0008091E800877F8093E80067E070E083E0DA
:1072C00091E022D48091E8008B778093E8000895C4
:1072D0008132E9F78091E800877F8093E80067E0DA
:1072E00070E083E091E067D48091E8008E77EDCF85
:1072F0006F927F928F929F92AF92BF92CF92DF92C6
:10730000EF92FF920F931F93CF93DF9384E08093CC
:10731000E9008091E80082FF2DC2289884E690E081
:107320009093A9018093A801DDDEC82F853451F523
:107330008CE49DE19093A7018093A60107B600FC21
:10734000FDCFF999FECF81E180935700E8958DE05C
:10735000E1DE83E08093E9009091E8008091E8000D
:107360008E778093E80095FFF8C18091E80080FF58
:10737000FEC184E08093E9008091E8008B778093E0
:10738000E800F8C1843511F4ADDEE1CF8C34F9F2B8
:107390008035E9F2843721F484E4BCDE80E0D8CF84
:1073A000813611F489E5D4CF8134D1F49BDEC82F26
:1073B00099DE2C2F30E0322F2227330F90E0880FF8
:1073C000991F822B932B092E000CAA0BBB0B8093C9
:1073D000AC019093AD01A093AE01B093AF01B7CFD4
:1073E000803711F483E5B4CF833551F4CCE9D1E093
:1073F00003EA11E089918EDE0C171D07D9F7A9CF9A
:10740000863521F481E386DE80E3A2CF833731F431
:1074100087E880DE85E97EDE8EE19ACF8536B9F495
:10742000E0E0F0E083E095E080935700E89507B650
:1074300000FCFDCF90935700E89507B600FCFDCF08
:10744000E058FF4FE11520E7F20771F780CF823750
:1074500039F4E1E0F0E089E080935700849178CF3F
:10746000863419F4E0E0F0E0F6CF8E3419F4E3E06E
:10747000F0E0F1CF813519F4E2E0F0E0ECCF8236B4
:1074800031F489E547DE80E045DE80E861CF823473
:1074900019F0873609F0D1C01092A7011092A60109
:1074A00021DEF82E1FDE082F1DDED82F8BEB8D0F6F
:1074B000823010F08FE34CCF10E01F2910926F0044
:1074C000C73609F047C081E180935700E895C0E0D6
:1074D000BB24B3940115110521F482E080936F0061
:1074E00038CFC090AC01D090AD01E090AE01F090EB
:1074F000AF01D634C9F4EC2FF0E0EC29FD298491DA
:1075000009DECC2369F082E0C80ED11CE11CF11C1D
:10751000C092AC01D092AD01E092AE01F092AF0109
:10752000CB2501501109D6CFD701C601B695A79535
:107530009795879596D4EEDDE2E0CE0ED11CE11C46
:10754000F11CC092AC01D092AD01E092AE01F0927C
:10755000AF01E7CF8090AC019090AD01A090AE015B
:10756000B090AF01D63441F483E0F401809357002A
:10757000E89507B600FCFDCF712CC0E0662463944B
:107580000115110569F4D63441F485E0F4018093C6
:107590005700E89507B600FCFDCF8DE0BBDD9DCF21
:1075A000D63441F5CC2319F1C090AC01D090AD0197
:1075B000E090AE01F090AF0195DD272D30E0382B43
:1075C000F601090160925700E8951124F2E0CF0E10
:1075D000D11CE11CF11CC092AC01D092AD01E09233
:1075E000AE01F092AF01C62501501109C9CF7ADD75
:1075F000782EF9CF77DD682F8091AC019091AD01A5
:10760000A091AE01B091AF01B695A79597958795DA
:1076100030D48091AC019091AD01A091AE01B091B8
:10762000AF010296A11DB11D8093AC019093AD01F5
:10763000A093AE01B093AF01D7CF833471F4C09162
:10764000AC01D091AD014EDD90E021E0FE010C01D6
:1076500020935700E89511247ACE833601F5C09027
:10766000AC01D090AD01E090AE01F090AF013ADDF9
:10767000F601E16090E021E00C0120935700E895CD
:107680001124F2E0CF0ED11CE11CF11CC092AC0120
:10769000D092AD01E092AE01F092AF0158CE8D369E
:1076A00061F4E091AC01F091AD0185E08093570069
:1076B000E89507B600FCFDCF4ACE823551F4E09143
:1076C000AC01F091AD01C591D4918D2F23DD8C2FAC
:1076D0003FCE8434D9F406DD682F8091AC019091BF
:1076E000AD01A091AE01B091AF01B695A795979568
:1076F0008795BFD38091AC019091AD01A091AE016F
:10770000B091AF010296A11DB11D61CE8436F1F496
:10771000C090AC01D090AD01E090AE01F090AF010F
:10772000D701C601B695A795979587959AD3F2DCB0
:1077300022E0C20ED11CE11CF11CC092AC01D0921F
:10774000AD01E092AE01F092AF0103CE8B3109F0B2
:10775000B1CEFFCD8EB3882369F08091E80080FF21
:10776000F9CF8091E8008E778093E800FECD8EB34C
:107770008111FBCDDF91CF911F910F91FF90EF9081
:10778000DF90CF90BF90AF909F908F907F906F9041
:1077900008953F9A209A559A5D982091000830915B
:1077A0000108109201081092000884B714BE0FB6A9
:1077B000F894A89590916000986190936000109261
:1077C00060000FBE81FD0AC080FF1BC0E0E0F0E05A
:1077D000459154914F3F5F4FA1F0BADCE0DC7894C3
:1077E0001092A7011092A60180910201811119C087
:1077F0008091E00081608093E000AADC80E090E06E
:10780000089583FFEBCF809100019091010128172B
:10781000390721F3E0E0F0E0859194910196E9F6D3
:10782000DDCF66DD07D38091A6019091A701813459
:107830009F4110F0109202019CDCD6CF292F30E03E
:107840002230310571F02330310581F021303105CE
:1078500011F582E190E02AE831E0FA0131832083DA
:1078600008958EE390E02CE431E0F7CF882349F0CF
:10787000813061F0823079F488E190E02AE031E0F3
:10788000ECCF84E090E028E431E0E7CF82E290E0C2
:1078900024E231E0E2CF80E090E020E030E0DDCF94
:1078A0008093E900EBEEF0E0808181608083EDEE73
:1078B000F0E010826093EC0040838091EE00881F1E
:1078C0008827881F08958091B40187FF11C0809197
:1078D000E80082FF06C08091E8008B778093E80083
:1078E00003C08EB38111F3CF08958EB38823E1F3E3
:1078F0008091E80080FFF9CF8091E8008E77EECF8D
:107900000F931F93CF93DF9341D048D0C8EDD0E0C1
:1079100088818F77888388818068888388818F7D3C
:10792000888319BC1EBA1092B20100EE10E0F80173
:1079300080818B7F808388818160888342E060E0E2
:1079400080E0AEDFE1EEF0E080818E7F8083E2EECA
:10795000F0E0808181608083808188608083F8018D
:1079600080818E7F8083888180618883DF91CF9141
:107970001F910F910895E7EDF0E080818160808391
:107980008AE482BF81E08093B301BACFE8EDF0E0F2
:1079900080818E7F80831092E20008951092DA0039
:1079A0001092E10008951F920F920FB60F921124CA
:1079B0002F933F934F935F936F937F938F939F93F7
:1079C000AF93BF93EF93FF938091DA0080FF17C0CE
:1079D0008091D80080FF13C08091DA008E7F809361
:1079E000DA008091D90080FF4EC080E189BD82E13C
:1079F00089BD09B400FEFDCF81E08EBB1AD2809113
:107A0000E10080FF17C08091E20080FF13C08091E9
:107A1000E2008E7F8093E2008091E200806180939B
:107A2000E2008091D80080628093D80019BC85E084
:107A30008EBBFFD18091E10084FF30C08091E200D5
:107A400084FF2CC080E189BD82E189BD09B400FEBC
:107A5000FDCF8091D8008F7D8093D8008091E10088
:107A60008F7E8093E1008091E2008F7E8093E20020
:107A70008091E20081608093E2008091B2018823CE
:107A800031F084E009C019BC1EBAD3D1B8CF8091BF
:107A9000E30087FDF6CF81E08EBBCBD18091E10082
:107AA00083FF21C08091E20083FF1DC08091E1002F
:107AB000877F8093E10082E08EBB1092B2018091BB
:107AC000E1008E7F8093E1008091E2008E7F8093C1
:107AD000E2008091E20080618093E20042E060E099
:107AE00080E0DEDEA6D1FF91EF91BF91AF919F9133
:107AF0008F917F916F915F914F913F912F910F9057
:107B00000FBE0F901F9018952091BA013091BB01C4
:107B100026173707A8F06115710529F42091E800B0
:107B20002E772093E800FC0120E06115710551F4E7
:107B3000211108C08091E80082FF32C080E00895E2
:107B4000B901F1CF8EB38823A1F1853071F1809115
:107B5000E80083FD2CC08091E80082FDEBCF80918E
:107B6000E80080FFE2CF2091F3008091F20090E0E6
:107B7000922B6115710519F08830910550F021E0C4
:107B8000089709F020E08091E8008E778093E80064
:107B9000CCCF21912093F100615071090196E9CF7A
:107BA0008EB3882331F0853029F683E0089581E093
:107BB000089582E008956115710529F42091E80087
:107BC0002B772093E800FC016115710531F4809159
:107BD000E80080FF23C080E008958EB3882339F148
:107BE000853009F18091E80083FD1FC08091E80095
:107BF00082FFEACF2091F3008091F20090E0922B77
:107C0000892B31F08091F10081936150710991F7D6
:107C10008091E8008B778093E800D6CF8EB38823DD
:107C200031F08530A1F683E0089581E0089582E087
:107C300008950F931F93CF93DF9300D0CDB7DEB796
:107C4000E4EBF1E08CEB91E02091F10021938E17B1
:107C50009F07D1F71FDB8091E80083FF8CC08091E4
:107C6000B4019091B501492F50E04A30510508F018
:107C700082C0FA01E35CF14CEEC0473E633EBB3E7E
:107C8000633EBB3E9C3ED23EBB3EF03EFC3E823855
:107C900009F071C08091B80187708093E9008091EC
:107CA000EB0085FB882780F91092E9009091E800AD
:107CB000977F9093E8008093F1001092F1008091FB
:107CC000E8008E7722C0282F2D7F09F054C0823023
:107CD00009F051C08091B601811112C08091B801A4
:107CE000877009F448C08093E9002091EB0020FFE1
:107CF00007C0933071F48091EB0080628093EB00B9
:107D00001092E9008091E800877F8093E800DBDD36
:107D100032C09091EB0090619093EB0021E030E055
:107D200001C0220F8A95EAF72093EA001092EA0038
:107D30008091EB008860E2CF81111DC01091B601E7
:107D40001F770FB7F8948091E800877F8093E80051
:107D5000BADD8091E80080FFFCCF8091E30080785D
:107D6000812B8093E30080688093E300111118C099
:107D700082E08EBB0FBF8091E80083FF0AC0809134
:107D8000EB0080628093EB008091E800877F809316
:107D9000E8000F900F90DF91CF911F910F91089500
:107DA00083E0E7CF8058823030F7AE014F5F5F4FFE
:107DB0006091B8018091B6019091B7013FDDBC019F
:107DC000892BC9F29091E800977F9093E800898110
:107DD0009A819ADE8091E8008B778093E800CBCF80
:107DE000803849F68091E800877F8093E800809191
:107DF000B2018093F10063CF8111BDCF9091B601A4
:107E0000923008F0B8CF8091E800877F8093E80037
:107E10009093B20158DD8091B201882311F084E083
:107E200005C08091E30087FDFACF81E08EBB26DAA2
:107E3000A2CF0895CF938EB3882359F0C091E90063
:107E4000C7701092E9008091E80083FDF2DEC093D4
:107E5000E900CF910895EE0FFF1F0590F491E02DFA
:107E60000994F999FECF92BD81BDF89A992780B502
:107E70000895262FF999FECF1FBA92BD81BD20BD6E
:107E80000FB6F894FA9AF99A0FBE01960895F894ED
:027E9000FFCF22
:107E9200777701000000000000081803410072001B
:107EA2006400750069006E006F0020004C004C00F9
:107EB2004300000022034100720064007500690063
:107EC2006E006F0020004C0065006F006E006100C4
:107ED200720064006F0000000403090409023E00FE
:107EE200020100803209040000010202010005249F
:107EF2000010010424020405240600010705820380
:107F02000800FF09040100020A000000070504023C
:107F12001000010705830210000112011001020086
:107F2200000841233600010002010001434154458B
:067F320052494E4100001F
:040000030000700089
:00000001FF
